{
  "_format": "hh-sol-artifact-1",
  "contractName": "ScamBuzzerSubscriptionNFT",
  "sourceName": "contracts/ScamBuzzerNFT.sol",
  "abi": [
    {
      "inputs": [],
      "stateMutability": "nonpayable",
      "type": "constructor"
    },
    {
      "inputs": [
        {
          "internalType": "address",
          "name": "sender",
          "type": "address"
        },
        {
          "internalType": "uint256",
          "name": "tokenId",
          "type": "uint256"
        },
        {
          "internalType": "address",
          "name": "owner",
          "type": "address"
        }
      ],
      "name": "ERC721IncorrectOwner",
      "type": "error"
    },
    {
      "inputs": [
        {
          "internalType": "address",
          "name": "operator",
          "type": "address"
        },
        {
          "internalType": "uint256",
          "name": "tokenId",
          "type": "uint256"
        }
      ],
      "name": "ERC721InsufficientApproval",
      "type": "error"
    },
    {
      "inputs": [
        {
          "internalType": "address",
          "name": "approver",
          "type": "address"
        }
      ],
      "name": "ERC721InvalidApprover",
      "type": "error"
    },
    {
      "inputs": [
        {
          "internalType": "address",
          "name": "operator",
          "type": "address"
        }
      ],
      "name": "ERC721InvalidOperator",
      "type": "error"
    },
    {
      "inputs": [
        {
          "internalType": "address",
          "name": "owner",
          "type": "address"
        }
      ],
      "name": "ERC721InvalidOwner",
      "type": "error"
    },
    {
      "inputs": [
        {
          "internalType": "address",
          "name": "receiver",
          "type": "address"
        }
      ],
      "name": "ERC721InvalidReceiver",
      "type": "error"
    },
    {
      "inputs": [
        {
          "internalType": "address",
          "name": "sender",
          "type": "address"
        }
      ],
      "name": "ERC721InvalidSender",
      "type": "error"
    },
    {
      "inputs": [
        {
          "internalType": "uint256",
          "name": "tokenId",
          "type": "uint256"
        }
      ],
      "name": "ERC721NonexistentToken",
      "type": "error"
    },
    {
      "inputs": [
        {
          "internalType": "address",
          "name": "owner",
          "type": "address"
        }
      ],
      "name": "OwnableInvalidOwner",
      "type": "error"
    },
    {
      "inputs": [
        {
          "internalType": "address",
          "name": "account",
          "type": "address"
        }
      ],
      "name": "OwnableUnauthorizedAccount",
      "type": "error"
    },
    {
      "anonymous": false,
      "inputs": [
        {
          "indexed": true,
          "internalType": "address",
          "name": "owner",
          "type": "address"
        },
        {
          "indexed": true,
          "internalType": "address",
          "name": "approved",
          "type": "address"
        },
        {
          "indexed": true,
          "internalType": "uint256",
          "name": "tokenId",
          "type": "uint256"
        }
      ],
      "name": "Approval",
      "type": "event"
    },
    {
      "anonymous": false,
      "inputs": [
        {
          "indexed": true,
          "internalType": "address",
          "name": "owner",
          "type": "address"
        },
        {
          "indexed": true,
          "internalType": "address",
          "name": "operator",
          "type": "address"
        },
        {
          "indexed": false,
          "internalType": "bool",
          "name": "approved",
          "type": "bool"
        }
      ],
      "name": "ApprovalForAll",
      "type": "event"
    },
    {
      "anonymous": false,
      "inputs": [
        {
          "indexed": false,
          "internalType": "uint256",
          "name": "_fromTokenId",
          "type": "uint256"
        },
        {
          "indexed": false,
          "internalType": "uint256",
          "name": "_toTokenId",
          "type": "uint256"
        }
      ],
      "name": "BatchMetadataUpdate",
      "type": "event"
    },
    {
      "anonymous": false,
      "inputs": [
        {
          "indexed": false,
          "internalType": "uint256",
          "name": "_tokenId",
          "type": "uint256"
        }
      ],
      "name": "MetadataUpdate",
      "type": "event"
    },
    {
      "anonymous": false,
      "inputs": [
        {
          "indexed": true,
          "internalType": "address",
          "name": "minter",
          "type": "address"
        },
        {
          "indexed": false,
          "internalType": "uint256",
          "name": "tokenId",
          "type": "uint256"
        }
      ],
      "name": "NFTMinted",
      "type": "event"
    },
    {
      "anonymous": false,
      "inputs": [
        {
          "indexed": true,
          "internalType": "address",
          "name": "previousOwner",
          "type": "address"
        },
        {
          "indexed": true,
          "internalType": "address",
          "name": "newOwner",
          "type": "address"
        }
      ],
      "name": "OwnershipTransferred",
      "type": "event"
    },
    {
      "anonymous": false,
      "inputs": [
        {
          "indexed": true,
          "internalType": "address",
          "name": "from",
          "type": "address"
        },
        {
          "indexed": true,
          "internalType": "address",
          "name": "to",
          "type": "address"
        },
        {
          "indexed": true,
          "internalType": "uint256",
          "name": "tokenId",
          "type": "uint256"
        }
      ],
      "name": "Transfer",
      "type": "event"
    },
    {
      "inputs": [],
      "name": "PRICE",
      "outputs": [
        {
          "internalType": "uint256",
          "name": "",
          "type": "uint256"
        }
      ],
      "stateMutability": "view",
      "type": "function"
    },
    {
      "inputs": [
        {
          "internalType": "address",
          "name": "to",
          "type": "address"
        },
        {
          "internalType": "uint256",
          "name": "tokenId",
          "type": "uint256"
        }
      ],
      "name": "approve",
      "outputs": [],
      "stateMutability": "nonpayable",
      "type": "function"
    },
    {
      "inputs": [
        {
          "internalType": "address",
          "name": "owner",
          "type": "address"
        }
      ],
      "name": "balanceOf",
      "outputs": [
        {
          "internalType": "uint256",
          "name": "",
          "type": "uint256"
        }
      ],
      "stateMutability": "view",
      "type": "function"
    },
    {
      "inputs": [
        {
          "internalType": "uint256",
          "name": "tokenId",
          "type": "uint256"
        }
      ],
      "name": "getApproved",
      "outputs": [
        {
          "internalType": "address",
          "name": "",
          "type": "address"
        }
      ],
      "stateMutability": "view",
      "type": "function"
    },
    {
      "inputs": [
        {
          "internalType": "address",
          "name": "owner",
          "type": "address"
        },
        {
          "internalType": "address",
          "name": "operator",
          "type": "address"
        }
      ],
      "name": "isApprovedForAll",
      "outputs": [
        {
          "internalType": "bool",
          "name": "",
          "type": "bool"
        }
      ],
      "stateMutability": "view",
      "type": "function"
    },
    {
      "inputs": [
        {
          "internalType": "string",
          "name": "tokenURI",
          "type": "string"
        }
      ],
      "name": "mintNFT",
      "outputs": [],
      "stateMutability": "payable",
      "type": "function"
    },
    {
      "inputs": [],
      "name": "name",
      "outputs": [
        {
          "internalType": "string",
          "name": "",
          "type": "string"
        }
      ],
      "stateMutability": "view",
      "type": "function"
    },
    {
      "inputs": [],
      "name": "nextTokenId",
      "outputs": [
        {
          "internalType": "uint256",
          "name": "",
          "type": "uint256"
        }
      ],
      "stateMutability": "view",
      "type": "function"
    },
    {
      "inputs": [],
      "name": "owner",
      "outputs": [
        {
          "internalType": "address",
          "name": "",
          "type": "address"
        }
      ],
      "stateMutability": "view",
      "type": "function"
    },
    {
      "inputs": [
        {
          "internalType": "uint256",
          "name": "tokenId",
          "type": "uint256"
        }
      ],
      "name": "ownerOf",
      "outputs": [
        {
          "internalType": "address",
          "name": "",
          "type": "address"
        }
      ],
      "stateMutability": "view",
      "type": "function"
    },
    {
      "inputs": [],
      "name": "renounceOwnership",
      "outputs": [],
      "stateMutability": "nonpayable",
      "type": "function"
    },
    {
      "inputs": [
        {
          "internalType": "address",
          "name": "from",
          "type": "address"
        },
        {
          "internalType": "address",
          "name": "to",
          "type": "address"
        },
        {
          "internalType": "uint256",
          "name": "tokenId",
          "type": "uint256"
        }
      ],
      "name": "safeTransferFrom",
      "outputs": [],
      "stateMutability": "nonpayable",
      "type": "function"
    },
    {
      "inputs": [
        {
          "internalType": "address",
          "name": "from",
          "type": "address"
        },
        {
          "internalType": "address",
          "name": "to",
          "type": "address"
        },
        {
          "internalType": "uint256",
          "name": "tokenId",
          "type": "uint256"
        },
        {
          "internalType": "bytes",
          "name": "data",
          "type": "bytes"
        }
      ],
      "name": "safeTransferFrom",
      "outputs": [],
      "stateMutability": "nonpayable",
      "type": "function"
    },
    {
      "inputs": [
        {
          "internalType": "address",
          "name": "operator",
          "type": "address"
        },
        {
          "internalType": "bool",
          "name": "approved",
          "type": "bool"
        }
      ],
      "name": "setApprovalForAll",
      "outputs": [],
      "stateMutability": "nonpayable",
      "type": "function"
    },
    {
      "inputs": [
        {
          "internalType": "bytes4",
          "name": "interfaceId",
          "type": "bytes4"
        }
      ],
      "name": "supportsInterface",
      "outputs": [
        {
          "internalType": "bool",
          "name": "",
          "type": "bool"
        }
      ],
      "stateMutability": "view",
      "type": "function"
    },
    {
      "inputs": [],
      "name": "symbol",
      "outputs": [
        {
          "internalType": "string",
          "name": "",
          "type": "string"
        }
      ],
      "stateMutability": "view",
      "type": "function"
    },
    {
      "inputs": [
        {
          "internalType": "uint256",
          "name": "tokenId",
          "type": "uint256"
        }
      ],
      "name": "tokenURI",
      "outputs": [
        {
          "internalType": "string",
          "name": "",
          "type": "string"
        }
      ],
      "stateMutability": "view",
      "type": "function"
    },
    {
      "inputs": [
        {
          "internalType": "address",
          "name": "from",
          "type": "address"
        },
        {
          "internalType": "address",
          "name": "to",
          "type": "address"
        },
        {
          "internalType": "uint256",
          "name": "tokenId",
          "type": "uint256"
        }
      ],
      "name": "transferFrom",
      "outputs": [],
      "stateMutability": "nonpayable",
      "type": "function"
    },
    {
      "inputs": [
        {
          "internalType": "address",
          "name": "newOwner",
          "type": "address"
        }
      ],
      "name": "transferOwnership",
      "outputs": [],
      "stateMutability": "nonpayable",
      "type": "function"
    },
    {
      "inputs": [],
      "name": "withdraw",
      "outputs": [],
      "stateMutability": "nonpayable",
      "type": "function"
    }
  ],
  "bytecode": "0x60806040523480156200001157600080fd5b50336040518060400160405280600a81526020016929b1b0b6a13abd3d32b960b11b8152506040518060400160405280600381526020016229a1a160e91b8152508160009081620000639190620001ad565b506001620000728282620001ad565b5050506001600160a01b038116620000a457604051631e4fbdf760e01b81526000600482015260240160405180910390fd5b620000af81620000b6565b5062000279565b600780546001600160a01b038381166001600160a01b0319831681179093556040519116919082907f8be0079c531659141344cd1fd0a4f28419497f9722a3daafe3b4186f6b6457e090600090a35050565b634e487b7160e01b600052604160045260246000fd5b600181811c908216806200013357607f821691505b6020821081036200015457634e487b7160e01b600052602260045260246000fd5b50919050565b601f821115620001a857600081815260208120601f850160051c81016020861015620001835750805b601f850160051c820191505b81811015620001a4578281556001016200018f565b5050505b505050565b81516001600160401b03811115620001c957620001c962000108565b620001e181620001da84546200011e565b846200015a565b602080601f831160018114620002195760008415620002005750858301515b600019600386901b1c1916600185901b178555620001a4565b600085815260208120601f198616915b828110156200024a5788860151825594840194600190910190840162000229565b5085821015620002695787850151600019600388901b60f8161c191681555b5050505050600190811b01905550565b6115c780620002896000396000f3fe60806040526004361061011f5760003560e01c806375794a3c116100a0578063b88d4fde11610064578063b88d4fde14610311578063c87b56dd14610331578063e985e9c514610351578063f2fde38b14610371578063fb37e8831461039157600080fd5b806375794a3c1461028d5780638d859f3e146102a35780638da5cb5b146102be57806395d89b41146102dc578063a22cb465146102f157600080fd5b80633ccfd60b116100e75780633ccfd60b146101f557806342842e0e1461020a5780636352211e1461022a57806370a082311461024a578063715018a61461027857600080fd5b806301ffc9a71461012457806306fdde0314610159578063081812fc1461017b578063095ea7b3146101b357806323b872dd146101d5575b600080fd5b34801561013057600080fd5b5061014461013f3660046110ab565b6103a4565b60405190151581526020015b60405180910390f35b34801561016557600080fd5b5061016e6103cf565b6040516101509190611118565b34801561018757600080fd5b5061019b61019636600461112b565b610461565b6040516001600160a01b039091168152602001610150565b3480156101bf57600080fd5b506101d36101ce366004611160565b61048a565b005b3480156101e157600080fd5b506101d36101f036600461118a565b610499565b34801561020157600080fd5b506101d3610529565b34801561021657600080fd5b506101d361022536600461118a565b61056d565b34801561023657600080fd5b5061019b61024536600461112b565b61058d565b34801561025657600080fd5b5061026a6102653660046111c6565b610598565b604051908152602001610150565b34801561028457600080fd5b506101d36105e0565b34801561029957600080fd5b5061026a60085481565b3480156102af57600080fd5b5061026a662386f26fc1000081565b3480156102ca57600080fd5b506007546001600160a01b031661019b565b3480156102e857600080fd5b5061016e6105f4565b3480156102fd57600080fd5b506101d361030c3660046111e1565b610603565b34801561031d57600080fd5b506101d361032c3660046112a9565b61060e565b34801561033d57600080fd5b5061016e61034c36600461112b565b610626565b34801561035d57600080fd5b5061014461036c366004611325565b610737565b34801561037d57600080fd5b506101d361038c3660046111c6565b610765565b6101d361039f366004611358565b6107a0565b60006001600160e01b03198216632483248360e11b14806103c957506103c98261085b565b92915050565b6060600080546103de906113a1565b80601f016020809104026020016040519081016040528092919081815260200182805461040a906113a1565b80156104575780601f1061042c57610100808354040283529160200191610457565b820191906000526020600020905b81548152906001019060200180831161043a57829003601f168201915b5050505050905090565b600061046c826108ab565b506000828152600460205260409020546001600160a01b03166103c9565b6104958282336108e4565b5050565b6001600160a01b0382166104c857604051633250574960e11b8152600060048201526024015b60405180910390fd5b60006104d58383336108f1565b9050836001600160a01b0316816001600160a01b031614610523576040516364283d7b60e01b81526001600160a01b03808616600483015260248201849052821660448201526064016104bf565b50505050565b6105316109ea565b6007546040516001600160a01b03909116904780156108fc02916000818181858888f1935050505015801561056a573d6000803e3d6000fd5b50565b6105888383836040518060200160405280600081525061060e565b505050565b60006103c9826108ab565b60006001600160a01b0382166105c4576040516322718ad960e21b8152600060048201526024016104bf565b506001600160a01b031660009081526003602052604090205490565b6105e86109ea565b6105f26000610a17565b565b6060600180546103de906113a1565b610495338383610a69565b610619848484610499565b6105233385858585610b08565b6060610631826108ab565b506000828152600660205260408120805461064b906113a1565b80601f0160208091040260200160405190810160405280929190818152602001828054610677906113a1565b80156106c45780601f10610699576101008083540402835291602001916106c4565b820191906000526020600020905b8154815290600101906020018083116106a757829003601f168201915b5050505050905060006106e260408051602081019091526000815290565b905080516000036106f4575092915050565b81511561072657808260405160200161070e9291906113db565b60405160208183030381529060405292505050919050565b61072f84610c33565b949350505050565b6001600160a01b03918216600090815260056020908152604080832093909416825291909152205460ff1690565b61076d6109ea565b6001600160a01b03811661079757604051631e4fbdf760e01b8152600060048201526024016104bf565b61056a81610a17565b662386f26fc100003410156107f75760405162461bcd60e51b815260206004820181905260248201527f496e73756666696369656e74207061796d656e7420746f206d696e74204e465460448201526064016104bf565b60088054600091826108088361140a565b9190505590506108183382610ca8565b6108228183610d0d565b60405181815233907f4cc0a9c4a99ddc700de1af2c9f916a7cbfdb71f14801ccff94061ad1ef8a80409060200160405180910390a25050565b60006001600160e01b031982166380ac58cd60e01b148061088c57506001600160e01b03198216635b5e139f60e01b145b806103c957506301ffc9a760e01b6001600160e01b03198316146103c9565b6000818152600260205260408120546001600160a01b0316806103c957604051637e27328960e01b8152600481018490526024016104bf565b6105888383836001610d5d565b6000828152600260205260408120546001600160a01b039081169083161561091e5761091e818486610e63565b6001600160a01b0381161561095c5761093b600085600080610d5d565b6001600160a01b038116600090815260036020526040902080546000190190555b6001600160a01b0385161561098b576001600160a01b0385166000908152600360205260409020805460010190555b60008481526002602052604080822080546001600160a01b0319166001600160a01b0389811691821790925591518793918516917fddf252ad1be2c89b69c2b068fc378daa952ba7f163c4a11628f55a4df523b3ef91a4949350505050565b6007546001600160a01b031633146105f25760405163118cdaa760e01b81523360048201526024016104bf565b600780546001600160a01b038381166001600160a01b0319831681179093556040519116919082907f8be0079c531659141344cd1fd0a4f28419497f9722a3daafe3b4186f6b6457e090600090a35050565b6001600160a01b038216610a9b57604051630b61174360e31b81526001600160a01b03831660048201526024016104bf565b6001600160a01b03838116600081815260056020908152604080832094871680845294825291829020805460ff191686151590811790915591519182527f17307eab39ab6107e8899845ad3d59bd9653f200f220920489ca2b5937696c31910160405180910390a3505050565b6001600160a01b0383163b15610c2c57604051630a85bd0160e11b81526001600160a01b0384169063150b7a0290610b4a908890889087908790600401611431565b6020604051808303816000875af1925050508015610b85575060408051601f3d908101601f19168201909252610b829181019061146e565b60015b610bee573d808015610bb3576040519150601f19603f3d011682016040523d82523d6000602084013e610bb8565b606091505b508051600003610be657604051633250574960e11b81526001600160a01b03851660048201526024016104bf565b805181602001fd5b6001600160e01b03198116630a85bd0160e11b14610c2a57604051633250574960e11b81526001600160a01b03851660048201526024016104bf565b505b5050505050565b6060610c3e826108ab565b506000610c5660408051602081019091526000815290565b90506000815111610c765760405180602001604052806000815250610ca1565b80610c8084610ec7565b604051602001610c919291906113db565b6040516020818303038152906040525b9392505050565b6001600160a01b038216610cd257604051633250574960e11b8152600060048201526024016104bf565b6000610ce0838360006108f1565b90506001600160a01b03811615610588576040516339e3563760e11b8152600060048201526024016104bf565b6000828152600660205260409020610d2582826114d1565b506040518281527ff8e1a15aba9398e019f0b49df1a4fde98ee17ae345cb5f6b5e2c27f5033e8ce79060200160405180910390a15050565b8080610d7157506001600160a01b03821615155b15610e33576000610d81846108ab565b90506001600160a01b03831615801590610dad5750826001600160a01b0316816001600160a01b031614155b8015610dc05750610dbe8184610737565b155b15610de95760405163a9fbf51f60e01b81526001600160a01b03841660048201526024016104bf565b8115610e315783856001600160a01b0316826001600160a01b03167f8c5be1e5ebec7d5bd14f71427d1e84f3dd0314c0f7b2291e5b200ac8c7c3b92560405160405180910390a45b505b5050600090815260046020526040902080546001600160a01b0319166001600160a01b0392909216919091179055565b610e6e838383610f5a565b610588576001600160a01b038316610e9c57604051637e27328960e01b8152600481018290526024016104bf565b60405163177e802f60e01b81526001600160a01b0383166004820152602481018290526044016104bf565b60606000610ed483610fbd565b600101905060008167ffffffffffffffff811115610ef457610ef461121d565b6040519080825280601f01601f191660200182016040528015610f1e576020820181803683370190505b5090508181016020015b600019016f181899199a1a9b1b9c1cb0b131b232b360811b600a86061a8153600a8504945084610f2857509392505050565b60006001600160a01b0383161580159061072f5750826001600160a01b0316846001600160a01b03161480610f945750610f948484610737565b8061072f5750506000908152600460205260409020546001600160a01b03908116911614919050565b60008072184f03e93ff9f4daa797ed6e38ed64bf6a1f0160401b8310610ffc5772184f03e93ff9f4daa797ed6e38ed64bf6a1f0160401b830492506040015b6d04ee2d6d415b85acef81000000008310611028576d04ee2d6d415b85acef8100000000830492506020015b662386f26fc10000831061104657662386f26fc10000830492506010015b6305f5e100831061105e576305f5e100830492506008015b612710831061107257612710830492506004015b60648310611084576064830492506002015b600a83106103c95760010192915050565b6001600160e01b03198116811461056a57600080fd5b6000602082840312156110bd57600080fd5b8135610ca181611095565b60005b838110156110e35781810151838201526020016110cb565b50506000910152565b600081518084526111048160208601602086016110c8565b601f01601f19169290920160200192915050565b602081526000610ca160208301846110ec565b60006020828403121561113d57600080fd5b5035919050565b80356001600160a01b038116811461115b57600080fd5b919050565b6000806040838503121561117357600080fd5b61117c83611144565b946020939093013593505050565b60008060006060848603121561119f57600080fd5b6111a884611144565b92506111b660208501611144565b9150604084013590509250925092565b6000602082840312156111d857600080fd5b610ca182611144565b600080604083850312156111f457600080fd5b6111fd83611144565b91506020830135801515811461121257600080fd5b809150509250929050565b634e487b7160e01b600052604160045260246000fd5b600067ffffffffffffffff8084111561124e5761124e61121d565b604051601f8501601f19908116603f011681019082821181831017156112765761127661121d565b8160405280935085815286868601111561128f57600080fd5b858560208301376000602087830101525050509392505050565b600080600080608085870312156112bf57600080fd5b6112c885611144565b93506112d660208601611144565b925060408501359150606085013567ffffffffffffffff8111156112f957600080fd5b8501601f8101871361130a57600080fd5b61131987823560208401611233565b91505092959194509250565b6000806040838503121561133857600080fd5b61134183611144565b915061134f60208401611144565b90509250929050565b60006020828403121561136a57600080fd5b813567ffffffffffffffff81111561138157600080fd5b8201601f8101841361139257600080fd5b61072f84823560208401611233565b600181811c908216806113b557607f821691505b6020821081036113d557634e487b7160e01b600052602260045260246000fd5b50919050565b600083516113ed8184602088016110c8565b8351908301906114018183602088016110c8565b01949350505050565b60006001820161142a57634e487b7160e01b600052601160045260246000fd5b5060010190565b6001600160a01b0385811682528416602082015260408101839052608060608201819052600090611464908301846110ec565b9695505050505050565b60006020828403121561148057600080fd5b8151610ca181611095565b601f82111561058857600081815260208120601f850160051c810160208610156114b25750805b601f850160051c820191505b81811015610c2a578281556001016114be565b815167ffffffffffffffff8111156114eb576114eb61121d565b6114ff816114f984546113a1565b8461148b565b602080601f831160018114611534576000841561151c5750858301515b600019600386901b1c1916600185901b178555610c2a565b600085815260208120601f198616915b8281101561156357888601518255948401946001909101908401611544565b50858210156115815787850151600019600388901b60f8161c191681555b5050505050600190811b0190555056fea26469706673582212208f2525ac2f5b9a83036583ffbb553b78fee06b2f831b3e4c74b57eff55d18fdd64736f6c63430008140033",
  "linkReferences": {},
  "deployedLinkReferences": {}
}